:020000040800F2
:100000000028002091160008211600082716000875
:100010002D160008331600083916000800000000ED
:100020000000000000000000000000003F16000873
:100030004B16000800000000571600086316000861
:10004000D9160008D9160008D9160008D9160008D4
:10005000D9160008D9160008D9160008D9160008C4
:10006000D9160008D9160008D9160008D9160008B4
:10007000D9160008D9160008D9160008D9160008A4
:10008000D9160008D9160008D9160008D916000894
:10009000D9160008D9160008D9160008D916000884
:1000A000D9160008D9160008D9160008D916000874
:1000B00071160008D916000800000000D9160008C3
:1000C000D91600080000000000000000D916000842
:1000D00000000000D9160008D91600080000000032
:1000E000D9160008D9160008D9160008000000002B
:1000F0000000000000000000000000000000000000
:0C01000000000000000000005FF808F1A3
:10010C0010B5054C237833B9044B13B10448AFF345
:10011C0000800123237010BD50000020000000005F
:10012C00202D000808B5034B1BB103490348AFF35E
:10013C00008008BD0000000054000020202D0008A5
:10014C0080B500AFA24B1B68013B172B00F2388126
:10015C0001A252F823F000BFC5010008CD0300082E
:10016C00CD030008CD030008CD030008CD03000823
:10017C00CD030008CD030008CD030008CD03000813
:10018C00CD030008CD030008CD030008CD03000803
:10019C00CD030008CD030008CD030008CD030008F3
:1001AC00CD030008CD030008E10100084F02000850
:1001BC00D902000845030008854B15221A60854BAF
:1001CC001B681946002001F04BF94FF47A7001F0CE
:1001DC002BF910E10221012000F02CFB032102205D
:1001EC0000F028FB7C4B1B68012B1BD14FF47A7061
:1001FC0001F01AF9794B1B68013B784A1360784B74
:10020C001B68013B764A1360754B1B68002B09DC9D
:10021C00744B1B68744A82FB03129211DB17D31ABE
:10022C006F4A1360714B1B68012B40F0CB806D4BF8
:10023C001B681946002001F013F9654B16221A6051
:10024C00C0E00221012000F0F5FA0421022000F0A8
:10025C00F1FA614B1B68012B29D14FF47A7001F034
:10026C00E3F85E4B1B68013B5C4A13605B4B1B68FD
:10027C00002B09DC574B1B685B4A82FB0312921163
:10028C00DB17D31A554A1360554B1B68013B544A74
:10029C001360534B1B68002B09DC554B1B68524AEF
:1002AC0082FB03129211DB17D31A4D4A13604F4B8A
:1002BC001B68012B40F08880464B1B6819460020B8
:1002CC0001F0CEF8424B17221A607DE00321012089
:1002DC0000F0B0FA0221022000F0ACFA3E4B1B6891
:1002EC00012B1BD14FF47A7001F09EF83B4B1B682D
:1002FC00013B3A4A1360394B1B68002B09DC394B24
:10030C001B68394A82FB03129211DB17D31A334A4A
:10031C001360334B1B68013B314A1360334B1B6832
:10032C00012B53D12F4B1B681946002001F098F874
:10033C00274B18221A6049E00421012000F07AFAB8
:10034C000221022000F076FA234B1B68012B29D1E5
:10035C004FF47A7001F068F8204B1B68013B1F4A80
:10036C0013601E4B1B68002B09DC214B1B681E4ABB
:10037C0082FB03129211DB17D31A184A1360184B25
:10038C001B68013B164A1360154B1B68002B09DCDC
:10039C00104B1B68144A82FB03129211DB17D31A01
:1003AC000F4A1360114B1B68012B23D1094B1B689F
:1003BC001946002001F054F8054B15221A6019E07B
:1003CC0000BF18E000BF16E000BF14E000BF12E051
:1003DC00000000200C000020B00000206C00002069
:1003EC007000002008000020D34D6210B8000020DF
:1003FC000400002000BF002000F076FE0346012B15
:10040C0033D11B4B0B221A606421012001F028F818
:10041C000221012000F00EFA0221022000F00AFA5B
:10042C00144B1B68144A82FB03129211DB17D31A6C
:10043C00124A1360124B1B680F4A82FB0312921173
:10044C00DB17D31A0F4A13600F4B1B680A4A82FB47
:10045C0003129211DB17D31A0C4A1360074B1B685B
:10046C000B4A13600B4B02221A6000BF80BD00BF09
:10047C000000002004000020D34D6210D8000020A2
:10048C0008000020D40000200C000020D000002028
:10049C006C0000207000002080B500AF954B1B68ED
:1004AC000D2B00F0AA800D2B00F31B810B2B02D01F
:1004BC000C2B51D015E1904B5B68012B0BD1FA2121
:1004CC00012000F0CDFF0221072000F041F90221AC
:1004DC00082000F03DF9012000F006FE0346012B38
:1004EC0010D1864B1B680133844A1360844B1B6804
:1004FC000133834A1360814B1B68632B02DD7F4BF6
:10050C0001221A60022000F0EFFD0346012B07D1F7
:10051C007A4B1B684FF47A7202FB03F3794A13602F
:10052C00002000F0E1FD0346012B40F0DC80714B14
:10053C000C221A606421012000F092FF724B1B68A0
:10054C00724A82FB03129211DB17D31A6C4A1360A6
:10055C006F4B03221A60C6E0674B5B68012B0BD113
:10056C00FA21012000F07CFF0421072000F0F0F8B4
:10057C000421082000F0ECF8012000F0B5FD034642
:10058C00002B10D0634B1B680133624A13605C4B29
:10059C001B6801335A4A13605E4B1B68632B02DDE8
:1005AC005C4B01221A60022000F09EFD0346002BDA
:1005BC0007D0584B1B684FF47A7202FB03F3524A74
:1005CC001360002000F090FD0346002B00F08D809E
:1005DC00484B0D221A606421012000F041FF4E4B64
:1005EC001B684A4A82FB03129211DB17D31A444A46
:1005FC001360474B04221A6077E03F4B5B68012B7A
:10060C000BD1FA21012000F02BFF0321072000F071
:10061C009FF80321082000F09BF8012000F064FDF6
:10062C000346002B10D03D4B1B6801333B4A136033
:10063C00334B1B680133324A1360384B1B68632BF6
:10064C0002DD364B01221A60022000F04DFD0346FC
:10065C00002B07D0314B1B684FF47A7202FB03F36B
:10066C002D4A1360002000F03FFD0346002B3ED0C6
:10067C00204B15221A606421012000F0F1FE00F0DD
:10068C005BF800F04DF81F4B1A681F4B1B68D31A10
:10069C00214A13601B4B1B681C4A82FB03129211EC
:1006AC00DB17D31A164A13601B4B1B68174A82FBC5
:1006BC0003129211DB17D31A154A1360104B1B68E7
:1006CC00134A12681146184600F040FC4FF47A7039
:1006DC0000F0AAFE104B1B681946002000F0C0FE6B
:1006EC0005E000BF04E000BF02E000BF00E000BF77
:1006FC0000BF80BD00000020B8000020D800002002
:10070C006C0000200400002008000020D34D621073
:10071C0070000020D40000200C000020D00000202D
:10072C0080B500AF10227F21024801F0D2FA00BF41
:10073C0080BD00BF000C014080B500AF002240F22C
:10074C000E71024801F0C5FA00BF80BD00080140DF
:10075C0080B582B000AF786039607B68072B2AD1F6
:10076C003B68042B13D03B68042B58DC3B68022BF2
:10077C0003D03B68032B14D051E002212C4801F02C
:10078C00C0FA00220C212A4801F0A3FA4CE0042103
:10079C00274801F0B6FA00220A21254801F099FAFF
:1007AC0042E00821224801F0ACFA00220621204840
:1007BC0001F08FFA38E07B68082B32D13B68042BB0
:1007CC0015D03B68042B2EDC3B68022B03D03B6816
:1007DC00032B18D027E04FF48071154801F091FAE3
:1007EC0000224FF4C061124801F073FA1CE04FF480
:1007FC0000710F4801F085FA00224FF4A0610C48FB
:10080C0001F067FA10E04FF48061094801F079FAC1
:10081C0000224FF44071064801F05BFA04E000BF7F
:10082C0002E000BF00E000BF00BF0837BD4680BD3E
:10083C000008014080B582B000AF786039607B68F9
:10084C00012B2DD13B68042B14D03B68042B5EDCB0
:10085C003B68022B03D03B68032B16D057E01022C9
:10086C0002212F4801F035FA00220C212C4801F00E
:10087C0030FA51E010220421294801F02AFA002212
:10088C000A21274801F025FA46E0102208212448C5
:10089C0001F01FFA00220621214801F01AFA3BE070
:1008AC007B68022B35D13B68042B16D03B68042B9C
:1008BC0031DC3B68022B03D03B68032B1AD02AE0B7
:1008CC0010224FF48071164801F003FA00224FF405
:1008DC00C061134801F0FDF91EE010224FF40071C5
:1008EC000F4801F0F6F900224FF4A0610C4801F01A
:1008FC00F0F911E010224FF48061094801F0E9F998
:10090C0000224FF44071064801F0E3F904E000BF07
:10091C0002E000BF00E000BF00BF0837BD4680BD4D
:10092C000008014080B582B000AF78607B68092B6D
:10093C0000F2A68201A252F823F000BF7109000850
:10094C00050A0008710A0008FB0A00088D0B000854
:10095C000D0C0008970C00082B0D0008A90D0008C1
:10096C00F90D0008844B1B681AB2834B5B681BB2F1
:10097C0013431AB2804B9B681BB213431AB27E4BC3
:10098C00DB681BB213431AB27B4B1B691BB21343BC
:10099C001AB2794B5B691BB213431AB2764B9B6943
:1009AC001BB213431BB29BB210221946734801F0C1
:1009BC0090F9714B1B681AB26F4B5B681BB21343F7
:1009CC001AB26D4B9B681BB213431AB26A4BDB68AD
:1009DC001BB213431AB2684B1B691BB213431AB2F6
:1009EC00654B5B691BB213431BB29BB200221946C9
:1009FC00624801F06EF944E25F4B1B681AB25E4B21
:100A0C005B681BB213431AB25B4B9B681BB213435C
:100A1C001AB2594BDB681BB213431AB2564B1B6903
:100A2C001BB213431AB2544B5B691BB213431AB279
:100A3C00514B9B691BB213431BB29BB2102219463C
:100A4C004E4801F046F94C4B5B681AB24A4B9B6816
:100A5C001BB213431BB29BB200221946474801F04C
:100A6C0038F90EE2444B1B681AB2434B5B681BB25D
:100A7C0013431AB2404B9B681BB213431AB23E4B42
:100A8C00DB681BB213431AB23B4B1B691BB21343FB
:100A9C001AB2394B5B691BB213431AB2364B9B69C2
:100AAC001BB213431BB29BB210221946334801F000
:100ABC0010F9314B1B681AB22F4B5B681BB21343F6
:100ACC001AB22D4BDB681BB213431AB22A4B1B69AB
:100ADC001BB213431AB2284B9B691BB213431BB2B4
:100AEC009BB200221946254801F0F3F8C9E1224BCC
:100AFC001B681AB2204B5B681BB213431AB21E4B15
:100B0C009B681BB213431AB21B4BDB681BB213431B
:100B1C001AB2194B1B691BB213431AB2164B5B6901
:100B2C001BB213431AB2144B9B691BB213431BB277
:100B3C009BB210221946114801F0CBF80E4B1B68E2
:100B4C001AB20D4B5B681BB213431AB20A4B9B686B
:100B5C001BB213431AB2084BDB681BB213431AB215
:100B6C00054B9B691BB213431BB29BB20022194667
:100B7C00024801F0AEF884E110000020000C0140A6
:100B8C00844B1B681AB2834B5B681BB213431AB2BB
:100B9C00804B9B681BB213431AB27E4BDB681BB2B3
:100BAC0013431AB27B4B1B691BB213431AB2794B1A
:100BBC005B691BB213431AB2764B9B691BB213438E
:100BCC001BB29BB210221946734801F082F8714B8C
:100BDC005B681AB26F4B9B681BB213431AB26D4B16
:100BEC005B691BB213431AB26A4B9B691BB213436A
:100BFC001BB29BB200221946674801F06AF840E12B
:100C0C00644B1B681AB2634B5B681BB213431AB27A
:100C1C00604B9B681BB213431AB25E4BDB681BB272
:100C2C0013431AB25B4B1B691BB213431AB2594BD9
:100C3C005B691BB213431AB2564B9B691BB213432D
:100C4C001BB29BB210221946534801F042F8514B8B
:100C5C001B681AB24F4B9B681BB213431AB24D4B15
:100C6C00DB681BB213431AB24A4B5B691BB21343CA
:100C7C001AB2484B9B691BB213431BB29BB20022A6
:100C8C001946454801F025F8FBE0424B1B681AB2A7
:100C9C00404B5B681BB213431AB23E4B9B681BB2B2
:100CAC0013431AB23B4BDB681BB213431AB2394BDA
:100CBC001B691BB213431AB2364B5B691BB213434D
:100CCC001AB2344B9B691BB213431BB29BB210225A
:100CDC001946314800F0FDFF2E4B1B681AB22D4B04
:100CEC009B681BB213431AB22A4BDB681BB213432B
:100CFC001AB2284B1B691BB213431AB2254B5B6902
:100D0C001BB213431AB2234B9B691BB213431BB286
:100D1C009BB200221946204800F0DBFFB1E01D4BCE
:100D2C001B681AB21B4B5B681BB213431AB2194BEC
:100D3C009B681BB213431AB2164BDB681BB21343EE
:100D4C001AB2144B1B691BB213431AB2114B5B69D9
:100D5C001BB213431AB20F4B9B691BB213431BB24A
:100D6C009BB2102219460C4800F0B3FF094B1B68CC
:100D7C001AB2084B5B681BB213431AB2054B9B6843
:100D8C001BB213431BB29BB200221946024800F05F
:100D9C00A0FF76E010000020000C01403B4B1B68CC
:100DAC001AB23A4B5B681BB213431AB2374B9B68AF
:100DBC001BB213431AB2354BDB681BB213431AB286
:100DCC00324B1B691BB213431AB2304B5B691BB21B
:100DDC0013431AB22D4B9B691BB213431BB29BB22C
:100DEC00002219462A4800F074FF4AE0274B1B6882
:100DFC001AB2264B5B681BB213431AB2234B9B6887
:100E0C001BB213431AB2214BDB681BB213431AB249
:100E1C001E4B1B691BB213431AB21C4B5B691BB2F2
:100E2C0013431AB2194B9B691BB213431BB29BB2EF
:100E3C0010221946164800F04CFF144B1B681AB2CE
:100E4C00124B5B681BB213431AB2104B9B681BB25C
:100E5C0013431AB20D4BDB681BB213431AB20B4B84
:100E6C005B691BB213431AB2084B9B691BB2134349
:100E7C001BB29BB200221946054800F02AFF00E085
:100E8C0000BF00BF0837BD4680BD00BF100000206A
:100E9C00000C014080B582B000AF78607B68032BFA
:100EAC004AD801A252F823F0C50E0008E50E00083E
:100EBC00050F0008250F00081022E021214800F042
:100ECC0008FF002210211F4800F003FF1E4B1B6877
:100EDC001846FFF727FD30E01022D021194800F00A
:100EEC00F8FE00222021174800F0F3FE164B5B6839
:100EFC001846FFF717FD20E01022B021114800F032
:100F0C00E8FE002240210F4800F0E3FE0E4B9B68E8
:100F1C001846FFF707FD10E010227021094800F079
:100F2C00D8FE00228021074800F0D3FE064BDB6878
:100F3C001846FFF7F7FC00E000BF00BF0837BD46BE
:100F4C0080BD00BF000801407400002080B483B055
:100F5C0000AF786039607B68184A82FB03129210EC
:100F6C00DB17D31A164A13607968144B83FB0123E1
:100F7C009A10CB17D21A13469B0013445B00CA1A63
:100F8C000F4B5A603B680D4A82FB03129210DB1721
:100F9C00D31A0B4A93603968084B83FB01239A10D0
:100FAC00CB17D21A13469B0013445B00CA1A044B8E
:100FBC00DA6000BF0C37BD4680BC7047676666665A
:100FCC007400002080B582B000AF00237B6073E01A
:100FDC003D4A7B68134419783C4A7B6813440A46A3
:100FEC001A703B4A7B6813441978374A7B68134460
:100FFC000A461A70374A7B6852F8232036497B68B8
:10100C0031F813301946104600F04CFE03461946D1
:10101C002F4A7B6813440A461A702C4A7B68134487
:10102C001A7829497B680B441B789A4241D1264A8D
:10103C007B6813441A7826497B680B441B789A42C8
:10104C0037D1234A7B6813441A7824497B680B44B4
:10105C001B789A4219D01E4A7B68134419781F4A90
:10106C007B6813440A461A701C4A7B6813441B782D
:10107C00002B1ED11A4A7B68012142F82310194A11
:10108C007B68642142F8231013E0164A7B6852F8FF
:10109C0023305A1E13497B6841F82320114A7B6880
:1010AC0052F82330002B04DC0C4A7B6813440122D9
:1010BC001A707B6801337B607B68022B88DD00BF74
:1010CC0000BF0837BD4680BD880000208C00002082
:1010DC008400002038000020300000202C0000206C
:1010EC00900000209C00002080B483B000AF78609A
:1010FC007B68022B02DC7B68002B01DA00230DE0FD
:10110C00094A7B6852F82330012B06D1064A7B68CA
:10111C00002142F82310012300E0002318460C376D
:10112C00BD4680BC704700BF9000002080B582B0E7
:10113C0000AF00F0CDFA00F05BF800F0E1F800F041
:10114C0093F8234801F022FA00237B600A21022045
:10115C0000F086F90A2000F04BF91E4B1B681E4A62
:10116C0082FB03129211DB17D31A1C4A13601C4B1F
:10117C001B68194A82FB03129211DB17D31A194A06
:10118C001360194B9B68012B0BD16421022000F0DA
:10119C0067F9124B1B68134A126811461846FFF781
:1011AC00D5FE124B1B68012B0DD1FA2000F020F953
:1011BC007B68032B01DD00237B607B685A1C7A6003
:1011CC001846FFF767FEFEF7BBFFFFF765F9D8E798
:1011DC00DC00002004000020D34D62106C000020C5
:1011EC000C00002070000020B8000020A800002097
:1011FC0080B590B000AF07F11803282200211846E3
:10120C0001F080FD3B1D00221A605A609A60DA6082
:10121C001A610223BB610123BB621023FB62002312
:10122C007B6307F11803184600F084FD0346002B7E
:10123C0001D000F0D7F80F237B600023BB600023A4
:10124C00FB6000233B6100237B613B1D00211846A2
:10125C0000F0F0FF0346002B01D000F0C3F800BFF4
:10126C004037BD4680BD000080B586B000AF07F1A9
:10127C00080300221A605A609A60DA603B4600222A
:10128C001A605A601D4B4FF080421A601B4B41F69E
:10129C003F725A60194B00229A60184B0922DA608F
:1012AC00164B00221A61154B00229A61134801F06B
:1012BC001DF90346002B01D000F094F84FF4805335
:1012CC00BB6007F1080319460C4801F0B3FA03465A
:1012DC00002B01D000F086F800233B6000237B60DC
:1012EC003B461946054801F07FFC0346002B01D014
:1012FC0000F078F800BF1837BD4680BDDC00002038
:10130C0080B586B000AF07F1080300221A605A605E
:10131C009A60DA60284B9B69274A43F00403936177
:10132C00254B9B6903F004037B607B68224B9B6914
:10133C00214A43F0080393611F4B9B6903F0080398
:10134C003B603B68002240F2FE711C4800F0C1FC7F
:10135C0000227F211A4800F0BCFC40F2FE73BB60F7
:10136C000123FB6000233B6102237B6107F108032F
:10137C001946124800F01CFB7F23BB600123FB6065
:10138C0000233B6102237B6107F1080319460C48DB
:10139C0000F00EFB4FF4E043BB600023FB60012325
:1013AC003B6107F108031946044800F001FB00BF3C
:1013BC001837BD4680BD00BF001002400008014038
:1013CC00000C014080B582B000AF786000F068F886
:1013DC0000F0B0F800F094F8FFF7F4FD00BF083708
:1013EC00BD4680BD80B400AF72B600BFFEE7000002
:1013FC0080B483B000AF78607B68084A82FB03122C
:10140C009210DB17D31A064A1360064B00221A609F
:10141C0000BF0C37BD4680BC704700BF6766666670
:10142C00AC000020A800002080B483B000AF78602E
:10143C007B68084A82FB03129210DB17D31A064A08
:10144C001360064B00221A6000BF0C37BD4680BCEF
:10145C00704700BF67666666B4000020B0000020CD
:10146C0080B483B000AF786039603B68094A82FB76
:10147C0003129210DB17D21A07497B6841F823201C
:10148C00064A7B68002142F8231000BF0C37BD468A
:10149C0080BC704767666666C4000020B8000020F8
:1014AC0080B483B000AF00237B601CE0124A7B68E1
:1014BC0052F82330002B13DD0F4A7B6852F823308F
:1014CC005A1E0D497B6841F823200B4A7B6852F861
:1014DC002330002B04DC094A7B68012142F82310DD
:1014EC007B6801337B607B68022BDFDD00BF00BFB4
:1014FC000C37BD4680BC7047C4000020B8000020EB
:10150C0080B400AF094B1B68002B0BDD074B1B682D
:10151C00013B064A1360054B1B68002B02DC044B95
:10152C0001221A6000BFBD4680BC7047B400002089
:10153C00B000002080B400AF094B1B68002B0BDD02
:10154C00074B1B68013B064A1360054B1B68002BBD
:10155C0002DC044B01221A6000BFBD4680BC704700
:10156C00AC000020A800002080B485B000AF154B63
:10157C009B69144A43F001039361124B9B6903F07E
:10158C000103BB60BB680F4BDB690E4A43F0805311
:10159C00D3610C4BDB6903F080537B607B680A4B97
:1015AC005B68FB60FB6823F0E063FB60FB6843F067
:1015BC008063FB60044AFB68536000BF1437BD4670
:1015CC0080BC7047001002400000014080B584B020
:1015DC0000AF78607B681B68B3F1804F13D10C4B64
:1015EC00DB690B4A43F00103D361094BDB6903F060
:1015FC000103FB60FB68002200211C2000F0A1F914
:10160C001C2000F0BAF900BF1037BD4680BD00BFEA
:10161C000010024080B400AFFEE780B400AFFEE7DC
:10162C0080B400AFFEE780B400AFFEE780B400AF3B
:10163C00FEE780B400AF00BFBD4680BC704780B4ED
:10164C0000AF00BFBD4680BC704780B400AF00BF88
:10165C00BD4680BC704780B500AF00F07FF800BF7E
:10166C0080BD000080B500AF024800F0DBFF00BF7A
:10167C0080BD00BFDC00002080B400AF00BFBD46C1
:10168C0080BC7047FFF7F8FF0B480C490C4A00234D
:10169C0002E0D458C4500433C4188C42F9D3094A1C
:1016AC00094C002301E013600432A242FBD301F089
:1016BC0005FBFFF73BFD70470000002050000020A9
:1016CC00642D00085000002028010020FEE70000D7
:1016DC0080B500AF084B1B68074A43F0100313603A
:1016EC00032000F023F90F2000F008F8FFF73CFF6F
:1016FC000023184680BD00BF0020024080B582B098
:10170C0000AF7860124B1A68124B1B7819464FF4D5
:10171C007A73B3FBF1F3B2FBF3F3184600F03BF929
:10172C000346002B01D001230EE07B680F2B0AD857
:10173C00002279684FF0FF3000F003F9064A7B680D
:10174C001360002300E0012318460837BD4680BD16
:10175C00440000204C0000204800002080B400AF62
:10176C00054B1B781A46054B1B681344034A136040
:10177C0000BFBD4680BC70474C00002024010020F7
:10178C0080B400AF024B1B681846BD4680BC704746
:10179C002401002080B485B000AF78607B6803F032
:1017AC000703FB600C4BDB68BB60BA684FF6FF03AA
:1017BC001340BB60FB681A02BB68134343F0BF6362
:1017CC0043F40033BB60044ABB68D36000BF1437DA
:1017DC00BD4680BC704700BF00ED00E080B400AF98
:1017EC00044BDB681B0A03F007031846BD4680BC9C
:1017FC00704700BF00ED00E080B483B000AF03463B
:10180C00FB7197F90730002B0BDBFB7903F01F0200
:10181C00064997F907305B09012000FA02F241F8FA
:10182C00232000BF0C37BD4680BC704700E100E0B0
:10183C0080B483B000AF03463960FB7197F9073071
:10184C00002B0ADB3B68DAB20C4997F9073012011E
:10185C00D2B20B4483F800230AE03B68DAB20849A1
:10186C00FB7903F00F03043B1201D2B20B441A763E
:10187C0000BF0C37BD4680BC704700BF00E100E0E4
:10188C0000ED00E080B489B000AFF860B9607A6018
:10189C00FB6803F00703FB61FB69C3F10703042B2F
:1018AC0028BF0423BB61FB690433062B02D9FB69F7
:1018BC00033B00E000237B614FF0FF32BB6902FA6F
:1018CC0003F3DA43BB681A407B699A404FF0FF314F
:1018DC007B6901FA03F3D9437B680B401343184629
:1018EC002437BD4680BC704780B582B000AF7860AD
:1018FC007B68013BB3F1807F01D301230FE00A4ADF
:10190C007B68013B53600F214FF0FF30FFF790FFD6
:10191C00054B00229A60044B07221A6000231846DC
:10192C000837BD4680BD00BF10E000E080B582B036
:10193C0000AF78607868FFF72DFF00BF0837BD4611
:10194C0080BD80B586B000AF0346B9607A60FB738A
:10195C0000237B61FFF742FF78617A68B968786988
:10196C00FFF790FF024697F90F3011461846FFF724
:10197C005FFF00BF1837BD4680BD80B582B000AF99
:10198C000346FB7197F907301846FFF735FF00BF88
:10199C000837BD4680BD80B582B000AF78607868EE
:1019AC00FFF7A2FF034618460837BD4680BD00006E
:1019BC0080B48BB000AF7860396000237B62002369
:1019CC003B6248E101227B6A02FA03F3FB613B684C
:1019DC001B68FA691340BB61BA69FB699A4240F013
:1019EC0037813B685B68A34A93425ED0A14A93421D
:1019FC0075D8A14A934258D09F4A93426FD89F4AB8
:101A0C00934252D09D4A934269D89D4A93424CD0FE
:101A1C009B4A934263D89B4A934246D0994A93423D
:101A2C005DD8122B2AD8122B59D801A252F823F0C8
:101A3C00B71A0008911A0008A31A0008E51A000842
:101A4C00EB1A0008EB1A0008EB1A0008EB1A000856
:101A5C00EB1A0008EB1A0008EB1A0008EB1A000846
:101A6C00EB1A0008EB1A0008EB1A0008EB1A000836
:101A7C00EB1A0008991A0008AD1A0008824A934222
:101A8C0013D02CE03B68DB683B6229E03B68DB68E9
:101A9C0004333B6224E03B68DB6808333B621FE0A5
:101AAC003B68DB680C333B621AE03B689B68002B9D
:101ABC0002D104233B6213E03B689B68012B05D1E8
:101ACC0008233B627B68FA691A6109E008233B62D0
:101ADC007B68FA695A6103E000233B6200E000BFB7
:101AEC00BB69FF2B01D87B6801E07B6804337B6109
:101AFC00BB69FF2B02D87B6A9B0002E07B6A083B28
:101B0C009B003B617B691A680F213B6901FA03F367
:101B1C00DB431A40396A3B6901FA03F31A437B69C8
:101B2C001A603B685B6803F08053002B00F09080D8
:101B3C00564B9B69554A43F001039361534B9B6988
:101B4C0003F00103BB60BB68514A7B6A9B080233FC
:101B5C0052F82330FB607B6A03F003039B000F22D7
:101B6C0002FA03F3DB43FA681340FB607B68494AD3
:101B7C0093420DD07B68484A934207D07B68474A12
:101B8C00934201D1022304E0032302E0012300E08D
:101B9C0000237A6A02F0030292009340FA6813431E
:101BAC00FB603B497B6A9B080233FA6841F82320AF
:101BBC003B685B6803F48013002B06D0384B9A68A3
:101BCC003749BB6913438B6006E0354B9A68BB6998
:101BDC00DB43334913408B603B685B6803F40013B1
:101BEC00002B06D02E4BDA682D49BB691343CB6012
:101BFC0006E02B4BDA68BB69DB4329491340CB6009
:101C0C003B685B6803F40033002B06D0244B5A6806
:101C1C002349BB6913434B6006E0214B5A68BB69EF
:101C2C00DB431F4913404B603B685B6803F4803314
:101C3C00002B06D01A4B1A681949BB6913430B6069
:101C4C0006E0174B1A68BB69DB43154913400B6060
:101C5C007B6A01337B623B681A687B6A22FA03F366
:101C6C00002B7FF4AFAE00BF00BF2C37BD4680BC4D
:101C7C00704700BF0000321000003110000022102D
:101C8C000000211000001210000011100010024082
:101C9C000000014000080140000C01400010014010
:101CAC000004014080B485B000AF78600B467B80A7
:101CBC007B689A687B881340002B02D00123FB734E
:101CCC0001E00023FB73FB7B18461437BD4680BC38
:101CDC00704780B483B000AF78600B467B801346AE
:101CEC007B707B78002B03D07A887B681A6103E0C9
:101CFC007B881A047B681A6100BF0C37BD4680BC18
:101D0C00704780B485B000AF78600B467B807B68F1
:101D1C00DB68FB607A88FB6813401A04FB68D943C4
:101D2C007B880B401A437B681A6100BF1437BD4691
:101D3C0080BC704780B586B000AF78607B68002BA4
:101D4C0001D101236CE27B681B6803F00103002BBB
:101D5C0000F08780924B5B6803F00C03042B0CD0D3
:101D6C008F4B5B6803F00C03082B12D18C4B5B6818
:101D7C0003F48033B3F5803F0BD1894B1B6803F41C
:101D8C000033002B6CD07B685B68002B68D101237F
:101D9C0046E27B685B68B3F5803F06D1804B1B68DD
:101DAC007F4A43F4803313602EE07B685B68002B22
:101DBC000CD17B4B1B687A4A23F480331360784B2D
:101DCC001B68774A23F4802313601DE07B685B68F3
:101DDC00B3F5A02F0CD1724B1B68714A43F48023CE
:101DEC0013606F4B1B686E4A43F4803313600BE037
:101DFC006B4B1B686A4A23F480331360684B1B6877
:101E0C00674A23F4802313607B685B68002B13D034
:101E1C00FFF7B6FC386108E0FFF7B2FC02463B69FD
:101E2C00D31A642B01D90323FAE15D4B1B6803F42D
:101E3C000033002BF0D014E0FFF7A2FC386108E06F
:101E4C00FFF79EFC02463B69D31A642B01D903238E
:101E5C00E6E1534B1B6803F40033002BF0D100E098
:101E6C0000BF7B681B6803F00203002B63D04C4B54
:101E7C005B6803F00C03002B0BD0494B5B6803F041
:101E8C000C03082B1CD1464B5B6803F48033002BEE
:101E9C0016D1434B1B6803F00203002B05D07B6863
:101EAC001B69012B01D00123BAE13D4B1B6823F0C8
:101EBC00F8027B685B69DB00394913430B603AE03D
:101ECC007B681B69002B20D0364B01221A60FFF770
:101EDC0057FC386108E0FFF753FC02463B69D31A04
:101EEC00022B01D903239BE12D4B1B6803F002034A
:101EFC00002BF0D02A4B1B6823F0F8027B685B693F
:101F0C00DB00274913430B6015E0264B00221A60B7
:101F1C00FFF736FC386108E0FFF732FC02463B69FC
:101F2C00D31A022B01D903237AE11D4B1B6803F052
:101F3C000203002BF0D17B681B6803F00803002B15
:101F4C003AD07B689B69002B19D0174B01221A6081
:101F5C00FFF716FC386108E0FFF712FC02463B69FC
:101F6C00D31A022B01D903235AE10D4B5B6A03F000
:101F7C000203002BF0D0012000F09AFA1CE00A4B6F
:101F8C0000221A60FFF7FCFB38610FE0FFF7F8FB4B
:101F9C0002463B69D31A022B08D9032340E100BF48
:101FAC000010024000004242800442429E4B5B6A99
:101FBC0003F00203002BE9D17B681B6803F00403D8
:101FCC00002B00F0A6800023FB75974BDB6903F018
:101FDC008053002B0DD1944BDB69934A43F0805313
:101FEC00D361914BDB6903F08053BB60BB68012369
:101FFC00FB758E4B1B6803F48073002B18D18B4B35
:10200C001B688A4A43F480731360FFF7B9FB38618D
:10201C0008E0FFF7B5FB02463B69D31A642B01D9E4
:10202C000323FDE0814B1B6803F48073002BF0D07D
:10203C007B68DB68012B06D17B4B1B6A7A4A43F029
:10204C00010313622DE07B68DB68002B0CD1764B0F
:10205C001B6A754A23F001031362734B1B6A724AA5
:10206C0023F0040313621CE07B68DB68052B0CD1A6
:10207C006D4B1B6A6C4A43F0040313626A4B1B6A78
:10208C00694A43F0010313620BE0674B1B6A664A13
:10209C0023F001031362644B1B6A634A23F00403AD
:1020AC0013627B68DB68002B15D0FFF769FB386186
:1020BC000AE0FFF765FB02463B69D31A41F288320E
:1020CC00934201D90323ABE0574B1B6A03F0020385
:1020DC00002BEED014E0FFF753FB38610AE0FFF75A
:1020EC004FFB02463B69D31A41F28832934201D925
:1020FC00032395E04C4B1B6A03F00203002BEED13B
:10210C00FB7D012B05D1484BDB69474A23F08053FB
:10211C00D3617B68DB69002B00F08180424B5B68EC
:10212C0003F00C03082B61D07B68DB69022B46D1D2
:10213C003F4B00221A60FFF723FB386108E0FFF7E2
:10214C001FFB02463B69D31A022B01D9032367E01C
:10215C00354B1B6803F00073002BF0D17B681B6AB6
:10216C00B3F5803F08D1304B5B6823F400327B68B9
:10217C009B682D4913434B602B4B5B6823F4741203
:10218C007B68196A7B685B6A0B43274913434B6076
:10219C00274B01221A60FFF7F3FA386108E0FFF7CA
:1021AC00EFFA02463B69D31A022B01D9032337E01D
:1021BC001D4B1B6803F00073002BF0D02FE01C4B61
:1021CC0000221A60FFF7DCFA386108E0FFF7D8FA52
:1021DC0002463B69D31A022B01D9032320E0124B90
:1021EC001B6803F00073002BF0D118E07B68DB69EF
:1021FC00012B01D1012313E00B4B5B68FB60FB68E7
:10220C0003F480327B681B6A9A4206D1FB6803F4A4
:10221C0070127B685B6A9A4201D0012300E00023B4
:10222C0018461837BD4680BD0010024000700040B3
:10223C006000424280B584B000AF786039607B6842
:10224C00002B01D10123D0E06A4B1B6803F007037C
:10225C003A689A4210D9674B1B6823F0070265490C
:10226C003B6813430B60634B1B6803F007033A682E
:10227C009A4201D00123B8E07B681B6803F002038B
:10228C00002B20D07B681B6803F00403002B05D0C7
:10229C00594B5B68584A43F4E06353607B681B6896
:1022AC0003F00803002B05D0534B5B68524A43F4F0
:1022BC0060535360504B5B6823F0F0027B689B6863
:1022CC004D4913434B607B681B6803F00103002BE3
:1022DC0040D07B685B68012B07D1474B1B6803F42C
:1022EC000033002B15D101237FE07B685B68022B48
:1022FC0007D1414B1B6803F00073002B09D101235C
:10230C0073E03D4B1B6803F00203002B01D101234A
:10231C006BE0394B5B6823F003027B685B683649E2
:10232C0013434B60FFF72CFAF8600AE0FFF728FA2A
:10233C000246FB68D31A41F28832934201D9032337
:10234C0053E02D4B5B6803F00C027B685B689B00D1
:10235C009A42EBD1274B1B6803F007033A689A4269
:10236C0010D2244B1B6823F0070222493B6813430D
:10237C000B60204B1B6803F007033A689A4201D0AC
:10238C00012332E07B681B6803F00403002B08D0A8
:10239C00194B5B6823F4E0627B68DB6816491343D6
:1023AC004B607B681B6803F00803002B09D0124BB1
:1023BC005B6823F460527B681B69DB000E49134396
:1023CC004B6000F021F802460B4B5B681B0903F0D5
:1023DC000F030A49CB5C22FA03F3094A1360094B39
:1023EC001B681846FFF78AF9002318461037BD46BC
:1023FC0080BD00BF0020024000100240382D0008B4
:10240C00440000204800002080B487B000AF0023B7
:10241C00FB600023BB6000237B6100237B600023F7
:10242C003B611E4B5B68FB60FB6803F00C03042BE9
:10243C0002D0082B03D027E0194B3B6127E0FB6847
:10244C009B0C03F00F03174AD35C7B60FB6803F40F
:10245C008033002B10D0114B5B685B0C03F0010335
:10246C00114AD35CBB607B680D4A02FB03F2BB686C
:10247C00B2FBF3F37B6104E07B680C4A02FB03F3D1
:10248C007B617B693B6102E0054B3B6100BF3B69B3
:10249C0018461C37BD4680BC704700BF0010024078
:1024AC0000127A00482D0008582D000800093D0044
:1024BC0080B485B000AF78600A4B1B680A4AA2FB57
:1024CC0003235B0A7A6802FB03F3FB6000BFFB6823
:1024DC005A1EFA60002BF9D100BF00BF1437BD465D
:1024EC0080BC704744000020D34D621080B582B090
:1024FC0000AF78607B68002B01D1012341E07B6841
:10250C0093F83D30DBB2002B06D17B68002283F8B8
:10251C003C207868FFF75AF87B68022283F83D204C
:10252C007B681A687B6804331946104600F06EFA13
:10253C007B68012283F846207B68012283F83E20C9
:10254C007B68012283F83F207B68012283F84020BE
:10255C007B68012283F841207B68012283F84220AA
:10256C007B68012283F843207B68012283F8442096
:10257C007B68012283F845207B68012283F83D208B
:10258C00002318460837BD4680BD000080B485B0D6
:10259C0000AF78607B6893F83D30DBB2012B01D043
:1025AC00012335E07B68022283F83D207B681B68A1
:1025BC00DA687B681B6842F00102DA607B681B6892
:1025CC00164A934209D07B681B68B3F1804F04D044
:1025DC007B681B68124A934211D17B681B689B680D
:1025EC0003F00703FB60FB68062B10D07B681B68AD
:1025FC001A687B681B6842F001021A6007E07B686E
:10260C001B681A687B681B6842F001021A60002381
:10261C0018461437BD4680BC704700BF002C0140E3
:10262C000004004080B582B000AF78607B681B6806
:10263C001B6903F00203022B22D17B681B68DB6849
:10264C0003F00203022B1BD17B681B686FF00202A4
:10265C001A617B6801221A777B681B689B6903F0FF
:10266C000303002B03D0786800F0B4F905E0786818
:10267C0000F0A7F9786800F0B6F97B6800221A77A9
:10268C007B681B681B6903F00403042B22D17B6855
:10269C001B68DB6803F00403042B1BD17B681B68ED
:1026AC006FF004021A617B6802221A777B681B6840
:1026BC009B6903F44073002B03D0786800F08AF90F
:1026CC0005E0786800F07DF9786800F08CF97B689B
:1026DC0000221A777B681B681B6903F00803082B20
:1026EC0022D17B681B68DB6803F00803082B1BD125
:1026FC007B681B686FF008021A617B6804221A77EA
:10270C007B681B68DB6903F00303002B03D078683C
:10271C0000F060F905E0786800F053F9786800F093
:10272C0062F97B6800221A777B681B681B6903F0CF
:10273C001003102B22D17B681B68DB6803F010039D
:10274C00102B1BD17B681B686FF010021A617B6821
:10275C0008221A777B681B68DB6903F44073002B33
:10276C0003D0786800F036F905E0786800F029F9B4
:10277C00786800F038F97B6800221A777B681B6850
:10278C001B6903F00103012B0ED17B681B68DB680E
:10279C0003F00103012B07D17B681B686FF001026A
:1027AC001A617868FEF70EFE7B681B681B6903F0E4
:1027BC008003802B0ED17B681B68DB6803F08003E1
:1027CC00802B07D17B681B686FF080021A617868D8
:1027DC0000F06BFA7B681B681B6903F04003402B0D
:1027EC000ED17B681B68DB6803F04003402B07D1DC
:1027FC007B681B686FF040021A61786800F0FCF887
:10280C007B681B681B6903F02003202B0ED17B68AF
:10281C001B68DB6803F02003202B07D17B681B6847
:10282C006FF020021A61786800F036FA00BF0837A2
:10283C00BD4680BD80B584B000AF786039600023A0
:10284C00FB737B6893F83C30012B01D10223B4E07D
:10285C007B68012283F83C207B68022283F83D20B0
:10286C007B681B689B68BB60BB6823F07703BB600D
:10287C00BB6823F47F43BB607B681B68BA689A60B3
:10288C003B681B68B3F5005F3ED0B3F5005F00F208
:10289C008780B3F5805F00F08680B3F5805F7FD8CA
:1028AC00702B1AD0702B7BD8602B50D0602B77D824
:1028BC00502B3CD0502B73D8402B58D0402B6FD87A
:1028CC00302B64D0302B6BD8202B60D0202B67D8CA
:1028DC00002B5CD0102B5AD062E07B6818683B68E8
:1028EC0099683B685A683B68DB6800F05EF97B6866
:1028FC001B689B68BB60BB6843F07703BB607B685D
:10290C001B68BA689A604FE07B6818683B689968E6
:10291C003B685A683B68DB6800F047F97B681B68CA
:10292C009A687B681B6842F480429A603CE07B6842
:10293C0018683B6859683B68DB681A4600F0BEF8BB
:10294C007B681B685021184600F015F92CE07B6859
:10295C0018683B6859683B68DB681A4600F0DCF87D
:10296C007B681B686021184600F005F91CE07B6849
:10297C0018683B6859683B68DB681A4600F09EF89B
:10298C007B681B684021184600F0F5F80CE07B686A
:10299C001A683B681B681946104600F0ECF803E017
:1029AC000123FB7300E000BF7B68012283F83D200C
:1029BC007B68002283F83C20FB7B18461037BD4611
:1029CC0080BD80B483B000AF786000BF0C37BD46CB
:1029DC0080BC704780B483B000AF786000BF0C3708
:1029EC00BD4680BC704780B483B000AF786000BF38
:1029FC000C37BD4680BC704780B483B000AF7860A4
:102A0C0000BF0C37BD4680BC7047000080B485B059
:102A1C0000AF786039607B681B68FB607B68254A77
:102A2C00934207D07B68B3F1804F03D07B68224A76
:102A3C00934208D1FB6823F07003FB603B685B6832
:102A4C00FA681343FB607B681A4A934207D07B6891
:102A5C00B3F1804F03D07B68174A934208D1FB68CF
:102A6C0023F44073FB603B68DB68FA681343FB603C
:102A7C00FB6823F080023B685B691343FB607B6857
:102A8C00FA681A603B689A687B68DA623B681A6875
:102A9C007B689A627B68074A934203D13B681A6948
:102AAC007B681A637B6801225A6100BF1437BD46EC
:102ABC0080BC7047002C01400004004080B487B0FB
:102ACC0000AFF860B9607A60FB681B6A7B61FB68D9
:102ADC001B6A23F00102FB681A62FB689B693B616D
:102AEC003B6923F0F0033B617B681B013A6913439C
:102AFC003B617B6923F00A037B617A69BB681343F2
:102B0C007B61FB683A699A61FB687A691A6200BF5B
:102B1C001C37BD4680BC704780B487B000AFF860EE
:102B2C00B9607A60FB681B6A7B61FB681B6A23F0E7
:102B3C001002FB681A62FB689B693B613B6923F4DA
:102B4C0070433B617B681B033A6913433B617B69B0
:102B5C0023F0A0037B61BB681B017A6913437B6183
:102B6C00FB683A699A61FB687A691A6200BF1C3784
:102B7C00BD4680BC704780B485B000AF78603960CA
:102B8C007B689B68FB60FB6823F07003FB603A6812
:102B9C00FB68134343F00703FB607B68FA689A6099
:102BAC0000BF1437BD4680BC704780B487B000AFFF
:102BBC00F860B9607A603B60FB689B687B617B69FD
:102BCC0023F47F437B613B681A027B681A43BB6822
:102BDC0013437A6913437B61FB687A699A6000BF7F
:102BEC001C37BD4680BC704780B485B000AF7860A0
:102BFC0039607B6893F83C30012B01D1022341E012
:102C0C007B68012283F83C207B68022283F83D20FC
:102C1C007B681B685B68FB607B681B689B68BB60A0
:102C2C00FB6823F07003FB603B681B68FA68134376
:102C3C00FB607B681B68FA685A607B681B68144AE7
:102C4C00934209D07B681B68B3F1804F04D07B683A
:102C5C001B68104A93420CD1BB6823F08003BB6005
:102C6C003B685B68BA681343BB607B681B68BA68D7
:102C7C009A607B68012283F83D207B68002283F8F0
:102C8C003C20002318461437BD4680BC704700BF5B
:102C9C00002C01400004004080B483B000AF786089
:102CAC0000BF0C37BD4680BC704780B483B000AF0A
:102CBC00786000BF0C37BD4680BC704770B50026ED
:102CCC000C4D0D4C641BA410A64209D100F022F847
:102CDC0000260A4D0A4C641BA410A64205D170BDF7
:102CEC0055F8043B98470136EEE755F8043B9847F6
:102CFC000136F2E75C2D00085C2D00085C2D000805
:102D0C00602D000803460244934200D1704703F83B
:102D1C00011BF9E7F8B500BFF8BC08BC9E4670472C
:0C2D2C00F8B500BFF8BC08BC9E4670471C
:102D38000000000000000000010203040607080963
:102D480002030405060708090A0B0C0D0E0F1010E4
:042D58000102000074
:042D5C003101000839
:042D60000D01000859
:102D64000100000088130000D0070000B80B000029
:102D74000100000002000000040000000800000040
:102D840010000000200000004000000001000000CE
:102D9400001000200040000000080140000801402D
:102DA400000801400024F4001000000001000000AD
:040000050800169148
:00000001FF
